:020000022000DC
:1060000000000120756302005D6302005F6302000F
:106010006163020063630200656302000000000028
:1060200000000000000000000000000067630200A4
:1060300069630200000000006B6302006D630200F0
:106040003D8A02006F630200C58D02006F6302008B
:106050006F6302006F630200798C02007D9802007A
:106060006F6302006F6302006F6302006F630200E0
:106070006F630200ED8E02006F6302006F63020027
:106080006F630200116C02006F6302006F63020015
:106090006F6302006F630200A90103006F630200D7
:1060A0006F6302006F6302006F6302006F630200A0
:1060B0006F6302006F630200000000000000000038
:1060C0006F6302006F6302006F6302006F63020080
:1060D0006F6302006F6302006F6302000000000044
:1060E00000000000000000000000000000000000B0
:1060F00000000000000000000000000000000000A0
:10610000000000000000000000000000000000008F
:10611000000000000000000000000000000000007F
:10612000000000000000000000000000000000006F
:10613000000000000000000000000000000000005F
:10614000000000000000000000000000000000004F
:10615000000000000000000000000000000000003F
:10616000000000000000000000000000000000002F
:10617000000000000000000000000000000000001F
:10618000000000000000000000000000000000000F
:1061900000000000000000000000000000000000FF
:1061A00000000000000000000000000000000000EF
:1061B00000000000000000000000000000000000DF
:1061C00000000000000000000000000000000000CF
:1061D00000000000000000000000000000000000BF
:1061E00000000000000000000000000000000000AF
:1061F000000000000000000000000000000000009F
:10620000354936480A1A02D0072291438D4634494F
:1062100034480A1A06D00722914381F309880222E2
:1062200082F3148830483149314A00F044F831484B
:106230003149324A00F03FF831483249324A00F0E1
:106240003AF832483249334A00F035F83248334997
:10625000334A00F030F833483349344A00F02BF821
:1062600033483449344A00F026F83448344900228F
:1062700000F02CF833483449002200F027F8334866
:106280003349091A082902DB002202604160314AC1
:1062900090471F481F49884205D00268043003B464
:1062A000904703BCF7E700208646EC46002000211B
:1062B000294A9047FEE7884207D0521A05D0037852
:1062C00001300B700131013AF9D17047884202D098
:1062D00002700130FAE770470000012000E0002062
:1062E0000000012000000120EC4B0300E42B002003
:1062F000442C0020D0630200D06302003A0803005F
:10630000EC4B0300E42B0020E42B0020300A0300B8
:10631000300A0300300A0300300A0300300A030089
:10632000300A0300300A0300300A0300EA4B03007E
:106330004C4C0300442C0020442C0020442C002012
:10634000A2420020A4420020A4420020A442002037
:10635000A46200209D63020051B90200FEE7FEE73F
:10636000FEE7FEE7FEE7FEE7FEE7FEE7FEE7FEE705
:1063700000F002B8FFF7FCBF0F484FF00701884359
:1063800085460E4880470E48016841F4700101605F
:10639000BFF34F8FBFF36F8FFFF732BF09480A4932
:1063A0000A4A884207D0521A05D0037801300B7090
:1063B0000131013AF9D17047000001208DBD020082
:1063C00088ED00E01C0A0300D02B0020E42B002005
:1063D000032811D8012A0AD101290FD100F10E0298
:1063E000D2B20D4B00EB40001A5400207047012937
:1063F000F7D0022904D049B1072070470022F8E7FE
:10640000054B00EB400018444270EEE7024B00EBF6
:10641000400018448270E8E7442C002008B50122AF
:1064200002210020FFF7D4FF08B1072810D107226E
:1064300002210120FFF7CCFF08B1072808D1002175
:106440000A220846FFF7C4FF10B1072808BF002042
:1064500008BD00000388102B10B502D0112B1ED0F0
:1064600010BD1A4C2168B1B901220846FFF7B0FFF0
:1064700008B1072824D1072202210120FFF7A8FF35
:1064800008B107281CD1042202210020FFF7A0FF39
:1064900008B1072814D1236801332360E0E70B4AD1
:1064A0001368013B1360002BDAD1FFF7B7FF002818
:1064B000D6D0074B1B68002BD2D0BDE81040184740
:1064C000034B1B68002BE6D09847E4E7542C0020D0
:1064D000502C002005F026B80021084604F0D6BF55
:1064E00010F1360F0AD060B148F2165348F211523B
:1064F00010F1380F08BF13461846704748F214537E
:10650000FAE70346F8E708B50846114602F0D6F95F
:10651000002008BD30B5044685B0002002F050F9D7
:10652000054678B9201D039004F0C8FE064903987B
:1065300000952B462A4604F016FF05B0BDE8304012
:10654000FFF7CEBF05B030BD0765020008B50430C7
:1065500004F0B9FE02F060F9002008BD1FB500216B
:10656000039001AA44F20100CDE9011100F004F802
:1065700005B05DF804FB000038B572B603F08AFF81
:1065800003F0F8FD0028FBD1104B114C114D1249BE
:10659000E41AE408240444F0010003F035FFD5F8C0
:1065A000F030DB0700D500BE0C4944F0020003F0D8
:1065B0002BFFBFF34F8FEA68094B02F4E0621343ED
:1065C000EB60BFF34F8F00BFFDE700BFFC08030087
:1065D0003409030000ED00E03B0A0300470A030012
:1065E0000400FA0510B5D0E90243D1E90202A04245
:1065F00072EB03032CBF0120002010BD08B50A4830
:1066000000F0EFFA094AD2E90031C018084BD3E98B
:10661000002341F10001904271EB030303D210F11A
:10662000807041F1000108BDE42B0020602C0020A7
:10663000D82C002037B505460C460A4801A901F0C0
:1066400054F860B10570446001A9064801F077F87C
:1066500018B1054800F0CAFA002003B030BD04208C
:10666000FBE700BFC42C0020E42B002038B5184BFA
:106670001B78044613B90025284638BD0028FAD0F7
:10668000037F03F0FF05002BF5D0FFF7B7FFD4E938
:106690000223904271EB030314D3236903B92377D8
:1066A000D4E90530984721690029E4D0237F03F01D
:1066B000FF05002BDFD0D4E902325B1842F1000263
:1066C000C4E902320348214601F03CFFD4E700BF91
:1066D000682C0020640A030013B5114B1149186897
:1066E000019008231048582200F0ECFF044698B9A6
:1066F0000E4A0F4801A900F065F9044660B90C483C
:10670000012100F051FA01230A4A0948194600F014
:10671000B3F9094B01221A70204602B010BD00BF28
:106720005E0A03006C2C0020C42C0020A567020028
:10673000E42B0020FFFF7F00682C00203AB10368A3
:106740005A614A1E51425141196100207047072089
:10675000704738B5037F04460D4683B98261FFF761
:106760004DFF2369281841F10001C4E9020103B17A
:10677000256121460020BDE83840FFF75BBF0020BF
:1067800038BD0023014603770120FFF753BF401AAD
:1067900020F07F4070470000014800F022BA00BF9F
:1067A000E42B00202DE9F347064600F005FA40B13E
:1067B000584AD2E9003113F1807341F10001C2E976
:1067C00000310021304600F006FA38B1524C2368FF
:1067D00023B12068FFF74AFF0023236001213046E0
:1067E00000F0F9F920B1FFF709FF4C4BC3E90001B4
:1067F0004B48494D4B4C4C4F01A900F0B0FF0028CD
:1068000042D1DFF82081444CDFF82491404601F06A
:10681000AFFE2368002872D07BB12368D0E9025212
:10682000D3E902138D4272EB03032AD223681B7F44
:106830001BB12168404601F085FE404601F092FE02
:10684000D0E9027A0546FFF7D9FE381A6AEB010A49
:1068500001287AF1000345DBB0F5350F40D3FFF78F
:106860009BFF324A02444FF496030021484600F051
:1068700023F900283ED1236813B9304600F0F4F81C
:10688000256002B0BDE8F0870378012B1DD0022BF4
:1068900009D14FF00008204601F064FE002836D0F0
:1068A00080F81C80F7E73BB941680B7F23B90123CF
:1068B0000B77204601F046FE01A9194800F07AFF47
:1068C00001A9174800F04BFF99E741682B689942EE
:1068D00002D100232B60EFE7204601F04CFEEBE7EE
:1068E000AA68C0E70021484600F06BF92846FFF788
:1068F000BDFE01E00D28F9D00023236086E7002BC0
:10690000BFD1304602B0BDE8F04700F0B1B8012376
:106910003B70D1E7602C0020E02C0020D82C002018
:10692000C42C0020640A0300682C0020FFFFB40080
:10693000E42B002070B5EFF3108672B60C4A946811
:1069400001239CB993600B4B0B4DD3F88010294069
:106950001160C3F88050D3F8841051604FF0FF32BB
:10696000C3F88420047006B962B670BD0370FAE7FC
:10697000E42C002000E100E0FC06FFBD084B9A6813
:1069800010B55AB150B9EFF3108172B6054A1C68C0
:1069900014605C685460986001B962B610BD00BFB5
:1069A000E42C002000E100E0435882B03BB100231A
:1069B000435043580193019B012002B07047184691
:1069C000FBE70000F8B5204B4479204E43F8242023
:1069D0001F4A204B06EBC4049B1A2279DB081B04D8
:1069E00032B143F002001C4903F00EFD0820F8BD4F
:1069F00002680C88C2F8084590F904508A78047936
:106A00005201002DD2B219DB14494F1987F8002327
:106A100001226D0904F01F0402FA04F441F8254034
:106A2000427906EBC201012446F832000C7143F0B2
:106A300003000B4903F0E8FC0020D8E7094904F003
:106A40000F040A55ECE700BFF82C0020F02C0020C2
:106A5000FC08030044090300700A030000E100E0A1
:106A6000920A030014ED00E0036801221A607047E7
:106A7000036801225A60704773B501F15005AD00FB
:106A80000068ADB24FF480348C400026C0F8084353
:106A9000C0F84843465101F5A8714559019522F0C7
:106AA0007F42019D40F82120C0F844430BB1C0F85B
:106AB000044302B070BD00002DE9F74F0D4622F0EF
:106AC0007F4402684FF4803705F150068F408046BE
:106AD000B60002EB8500C2F84873B6B2C2F808737C
:106AE000D2F8041599464FF0000BD0F84035C0F8A5
:106AF000401542F806B05B1A9259009223F07F438A
:106B0000012B009A4FEA850A0CD1264B4FF4806086
:106B100043F001039847D8F8003043F806B09B597A
:106B20000193019BD8F80010D1F80465C1F84473B3
:106B3000A31B23F07F43012B1CD11A4B05F5A8752D
:106B4000013443F0010341F825404FF48060984739
:106B5000D8F80030D3F804359E4209D1D8F8003077
:106B60000020C3F84473C3F8047303B0BDE8F08F8A
:106B70000D20FAE78A44C9F1FF13CAF84045D1F85D
:106B80000405221A013A22F07F4203F57F43934223
:106B9000EED3002AE2D10134CAF84045D1F80435D9
:106BA0009842DAE7B00A030003680222C3F84423DC
:106BB00009B1C3F80423704700684FF48271FFF7EE
:106BC000F3BE4FF4803303FA01F10368C3F84813AE
:106BD000C3F80813704750318900006889B2FFF785
:106BE000E3BE0368D3F804057047000090F9043051
:106BF000002B09DB5A09012103F01F0301FA03F3FB
:106C00004032024941F82230704700BF00E100E005
:106C1000024B034A1B681068184700BFF82C00207D
:106C2000F02C002070B5064D0646002455F8043BB4
:106C30000BB1304698470134042CF7D170BD00BF2A
:106C4000082D00204388033300EB830399420BD3C4
:106C500082884FF6FF739A4208D0038833B1806868
:106C6000431C58425841704702207047012070472A
:106C7000033080B240F2FE33984230B51FD8134B38
:106C80001A783AB91C895D892C440444A4B2B4F53D
:106C9000806F0AD91A7DAAB99A8BDC8B22440244F0
:106CA00092B2B2F5806F0DD801220A8014461422E8
:106CB00002FB04335A8910445881002030BD48F249
:106CC0000860FBE748F20660F8E700BF3C2D0020B3
:106CD0000B4A0C495388142000FB0311CB6833B9CD
:106CE0000420496810700122074801F0F3B80749F1
:106CF0000523137002238B80012209680023F3E728
:106D0000202D00203C2D0020D02B0020782D0020AD
:106D100007B5002305490093054A0968054808237B
:106D200001F03EF803B05DF804FB00BF782D0020B1
:106D3000C40A0300D02B002007B5002301460093AE
:106D4000034A0448082301F02BF803B05DF804FB64
:106D5000BC0A0300D02B002013B500230C4600937F
:106D60000146084A0848042301F01AF838B9074BCD
:106D7000142101FB043101230B7402B010BD48F251
:106D80000D60FAE7B80A0300D02B00203C2D00204C
:106D900037B50A480A4B42689C881968538803250E
:106DA000033305709BB2002000909B0001EB84012F
:106DB000044800F0F5FF03B030BD00BF202D0020D7
:106DC000782D0020D02B002010B50146044800F09B
:106DD0008CFC1C220446002109F0AAFC204610BDB0
:106DE000642D002038B5144B14220D4602FB0030F0
:106DF0002B68446804F58051A3B15C88033403EB2D
:106E000084048C4215D22368013312D02046FFF748
:106E100019FF012808D002280BD00028F1D12C60DE
:106E2000012038BD0834ECE76388033304EB8304A6
:106E3000E7E70020F5E700BF3C2D0020426873B56E
:106E400004460D466AB3234BD9688A4229D31B698D
:106E50009A4226D812F0030323D11F4900890989D9
:106E600088421ED12068916888421AD11B48416827
:106E70008A4203D901F580518A420DD381698A4241
:106E80000CD901F580518A4208D201222A80B3FA36
:106E900083F0400902B070BD1A46F7E748F2096373
:106EA000F5E700262E800196288801A9FFF79AFFB2
:106EB00030B92B8801339BB2012B2B80F3D9E9E742
:106EC000019B226899689142EED16360024B1B8955
:106ED0002381DFE7D02B0020202D00203C2D002037
:106EE0002DE9F8431C461D4B1B7806460F461546F8
:106EF00073B382B37CB3DFF86C804FF01409A388BE
:106F0000012B02D948F2096020E009FB03F318F8CD
:106F100003302BB9A0882146FFF764FF20B9206019
:106F2000A3880133A380EAE723681EB199883288D9
:106F30009142EFD11FB119883A889142EAD19A68FB
:106F4000C5E90023064B1B892B810020BDE8F8838F
:106F500048F20160FAE748F20460F7E7182D0020D4
:106F6000202D00203C2D002008B5074B5888191D06
:106F7000FFF738FF18B1BDE80840FFF709BFBDE8CB
:106F80000840FFF7A5BE00BF202D00202DE9F047E7
:106F9000A24FDFF8AC8288B006463B6823B9A04810
:106FA000414600F0DCFB38603D6829784B1E052B1C
:106FB00007D8DFE813F020007A007A000C010C01FA
:106FC000640148F20E641422002103A809F0B0FB0A
:106FD00041F61D539C4208BF00243B6804941A7874
:106FE000023A042A00F20282DFE812F0E301EF0124
:106FF0001102190220022EB18A4B00225A604FF46E
:107000000644E0E72B79032B1CD8DFE803F01402D9
:107010002A35854A1378022B1AD0137D022B4FF0A4
:10702000010317D114214B43D1180020D0544868D4
:10703000FFF782FE03E001232B71FFF769FE0028B2
:1070400000F0BF80774B00225A6048F20D64BAE727
:107050000023E7E7734A13700023536041F61D5481
:10706000B1E772497248002302222B718A800968B5
:10707000012200F02FFFE2E76C4C00262E71206801
:10708000FFF75AFE6B4BDFF8A0C15B88256814221E
:1070900053430CEB03020CF8036051685560A5885C
:1070A000158102222160A280C9E7B5F814A0AA7D4B
:1070B000DFF87491AEB1022AEB8806D9142101FBE6
:1070C0000A91DA1C088902440A81142202FB0A99F7
:1070D000C3F57F43B9F80A20FD331344A9F80A30F9
:1070E0008DE7142303FB0A9318895C6804EB800482
:1070F000062A69D8DFE802F0274E36441D5A0400FC
:1071000041F61D54AA7DEB88022A06D9142101FB01
:107110000A91DA1C088902440A81142202FB0A99A6
:10712000C3F57F43B9F80A20FD331344A9F80A30A8
:1071300049E74148414900234360AB690360FFF7D9
:107140007DFE00285BD00223AB750023009304234F
:10715000EA182146364800F023FE002831D048F2D4
:107160000D64CFE72B69002B14BF03230123AB75FC
:107170000023009305F10C02042304F10801E9E760
:107180000123AB750022EB8800922A699B0004F171
:107190000C01DFE703290CBF05230623AB75002391
:1071A0000093042305F10802E118D3E70623AB7529
:1071B000224B1988204B5868FFF7CEFD0446002863
:1071C000A0D108B0BDE8F08748F20E649AE7002E1F
:1071D0007FF415AF2B79012B34D0022B3FF43EAF57
:1071E000002B7FF4EEAE02232B710DF10A01EB6848
:1071F000039303A8CDE90466FFF720FE10B948F217
:107200000964E0E60498BDF80A108388EB800388DF
:107210002B81FFF7A1FD044627E000BF382D002099
:10722000642D0020182D00203C2D0020782D0020FA
:10723000D02B0020202D0020FC2C0020802D0020B1
:10724000302D00207B4B03AA3146A81DFFF748FED6
:10725000784B044668B999880498FFF77DFD044689
:1072600048F209639C423FF4F9AE002C7FF4ABAEC8
:10727000A7E708223146184609F05AFAF0E7002E2F
:107280007FF4BDAE6C4B1A7BB2B11E731A78013A13
:10729000062A3FF696AE01A151F822F0477302008C
:1072A0006D7302008B73020091730200C36F0200C2
:1072B00097730200A97302001A78072AE6D801A181
:1072C00051F822F0E57202008D7202008D72020008
:1072D0000B7302001F73020043730200437302002A
:1072E000077302001A89554901321A8100225A8017
:1072F0001A730A78B2FA82F252099A720A7DB2FAC5
:1073000082F25209DA72012207E04D4958688A88F0
:107310004088033202448A8002221A70B6E75C88F1
:10732000464A4749142505FB042208685468506002
:107330008888108102200C60888000211174062248
:10734000EBE70722E9E79A7A32B9DA7A8AB90022BA
:107350001A705A805A6081E6384900229A72CA68C7
:10736000002AF2D1097C0029EFD05A80FFF7FCFDFA
:1073700051E70022DA72314A116A0029E7D192F806
:107380002420002AE3D00122EFE7FFF701FD42E7C6
:10739000FFF79EFC3FE75A88284B142101FB02337C
:1073A0005868FFF7C9FC36E700225A60FFF7B0FCC7
:1073B00031E701228DF80C201A89ADF818209A883F
:1073C000DB68ADF81A20059310E002228DF80C203E
:1073D0001A89ADF818209A88ADF81A20DA689B7DD2
:1073E00005929A1F534253418DF81C3003A8FFF7B2
:1073F00019FC0026414613483E6000F0DBF91248B4
:10740000012100F091FA00287FF4C7ADD9E60322EC
:107410008DF80C20DA88ADF818201A89D0E70422FC
:107420008DF80C20DB88ADF81830DFE705238DF8E8
:107430000C30DBE7842D0020202D00203C2D002087
:10744000782D0020642D0020742D00204068FFF767
:107450009DBD000008B50548012100F04DFA18B99E
:10746000BDE80840FFF792BD08BD00BF742D0020A5
:107470002DE9F3419846374B1B7806460D46002B05
:107480005CD000295DD009884FF6FF7399425BD02C
:107490006B88002B58D06B689B0758D14AB92F894D
:1074A0000DF102013846FFF7E3FB30B102B0BDE851
:1074B000F08113885788ADF8023001A8FFF784FCEB
:1074C000044660B9BDF80220234B142101FB0233AE
:1074D00058890338C01B588148F20760E6E780F8F6
:1074E000008000238375BDF8023083826B680361DE
:1074F00001211A4800F00CFA2B882381B8F1030F00
:107500006B88A38004BF0423A3754FF0000508BF58
:107510003368E06008BFA3611148E780658101A975
:1075200000F00DF936B1E36833600E4B75601B89CE
:10753000B5723381FFF78EFF0020B7E748F2016094
:10754000B4E748F20460B1E748F20360AEE748F2FE
:107550000260ABE7182D00203C2D0020342D0020C8
:10756000642D0020202D002073B50D460446C8B1BF
:10757000C1B10DF10601FFF761FCB0B1BDF80630F5
:107580000B486668142202FB030001210C3000F056
:10759000BFF963682E600C336B600123A372002077
:1075A00002B070BD48F20460FAE748F20960F7E7FC
:1075B0003C2D002013B50446A8B10DF10601FFF7DC
:1075C0003DFC98B1BDF806200B4B142101FB0233A2
:1075D000DA6872B1A27A62B1DA680020013ADA6040
:1075E000A07202B010BD48F20460FAE748F20960E8
:1075F000F7E748F20560F4E73C2D00200223002263
:10760000FFF736BF18B103230022FFF731BF48F25E
:1076100004607047114B1B7813B50446ABB14FF6AD
:10762000FF73984214D001A8FFF7CEFB98B1052351
:10763000037001230371C48001A9094800F07FF899
:10764000FFF708FF002002B010BD48F20160FAE722
:1076500048F20360F7E748F20760F4E7182D0020CE
:10766000642D002007B5ADF80600ADF804100DF14B
:10767000060001A9FFF734FC03B05DF804FB07B571
:107680001346ADF806000A4600200DF10601FFF78B
:1076900027FC03B05DF804FB07B51346ADF8060000
:1076A0000A460DF106000021FFF71AFC03B05DF851
:1076B00004FB20B119B103680B600020704748F249
:1076C0000460704710B561B1B2FBF3F403FB1424FE
:1076D000A4B244B9C0E9001484608281C381204609
:1076E00010BD0E20FCE70920FAE737B550E8013F4E
:1076F0009DB2C48925448489A54228BF2D1B0489D5
:10770000A54202BFBFF32F8F002207E0C5EA0305A1
:1077100040E80154002CE9D14FF001028DF803201C
:107720000193019A0A609DF8031001F0FF0321B153
:10773000006810FA82F003B030BD1846FBE70A88F3
:107740004B889A4209D150E8012FC2EA024240E830
:107750000123002BF7D1012070470020704737B577
:1077600050E8023F1FFAA3F5C488A54202BFBFF349
:107770002F8F00220DE0C48925448489A54228BFAB
:107780002D1BC3EA054540E80254002CE8D14FF018
:1077900001028DF803200193019A0A609DF80310FD
:1077A00001F0FF0321B1006800EB124003B030BDCF
:1077B0001846FBE70A884B889A4209D150E8022F05
:1077C000C2EA224240E80223002BF7D10120704791
:1077D0000020704701F01F024B090121914000EB8E
:1077E000830000F065B84B0910B501F01F040121BA
:1077F000A14000EB830000F04FF8E04000F00100F2
:1078000010BD01F01F0301229A404B0900EB8300D9
:10781000D14300F065B84B0901F01F0150F8230077
:10782000C84000F0010070472DE9F0474F1E7F0966
:1078300080460E460137002558F8254008EB85099B
:10784000E44394FAA4F4B4FA84F44FEA451A202CE1
:1078500006D10135AF42EFD834462046BDE8F08767
:107860005444A642F5D921464046FFF7BCFF002804
:10787000F3D0D9F80040E44394FAA4F4B4FA84F4C1
:10788000E5E710B5034653E8000F0A4643E8002435
:1078900094F0000FF7D110BD10B5034653E8000F68
:1078A00040EA010243E8002494F0000FF6D110BD35
:1078B00010B5034653E8002F42EA010043E80004F4
:1078C00094F0000FF6D110BD10B5034653E8000F39
:1078D00000EA010243E8002494F0000FF6D110BD45
:1078E00010B5034653E8002F02EA010043E8000404
:1078F00094F0000FF6D110BD10B5034653E8000F09
:1079000000EB010243E8002494F0000FF6D110BD13
:1079100010B5034653E8002F02EB010043E80004D2
:1079200094F0000FF6D110BD10B5034653E8002FB8
:10793000A2EB010043E8000494F0000FF6D110BD63
:107940000121FFF7B5BF0021FFF7BEBF10B590B111
:10795000D0E9012301689B1ADBB20A60013BDBB26C
:10796000FF2B026802D10020107110BD11684C1C61
:1079700014600B70F2E70E20F7E737B505460024D8
:107980000DF107008DF80740FEF7D4FF2A686B68F9
:10799000116899420ED9481E106011F8013CEC683C
:1079A000298A01FB0344AB6811791B1ADBB29942A7
:1079B00038BF13719DF80700FEF7E0FF204603B0C3
:1079C00030BD37B5054600230DF107000C468DF894
:1079D0000730FEF7AFFF2A681368591C1160E96889
:1079E000641A298AB4FBF1F41C709DF80700FEF7B5
:1079F000C5FF03B030BD826810B504462AB14369A3
:107A00000168006998470023A36010BD0EB403B558
:107A1000039921B104AB01AA019300F077F802B0F9
:107A20005DF804EB03B070470A2938B504460D46EB
:107A300002D10D21FFF7F8FFA3682268591CA1604D
:107A4000D554D4E901329A4204D32046BDE83840E7
:107A5000FFF7D1BF38BD00002DE9F84F9846DDE9AA
:107A60000A43154682460F460A464FF00109AA42CC
:107A70000FD2C14538BFC14613F0010B01D16CB91B
:107A800000240126B8F1010F1BD908F1FF386E431D
:107A9000F8E709F10109B2FBF5F2E8E79B070ED51B
:107AA000B8F1000F0CBF30262026A145E9D2013CD9
:107AB00031465046FFF7B8FF002CF6D1E0E720260C
:107AC000F3E7B7FBF6F39D42E1D9DFF83C80B7FB63
:107AD000F6F3504618F8031006FB1377FFF7A4FFE0
:107AE0003346AB42B6FBF5F6F1D2BBF1000F02D044
:107AF0000CB1A14501D3BDE8F88F20215046013CCF
:107B0000FFF792FFF4E700BFD50A03002DE9F74F16
:107B1000054617468846002900F03E8118F8011BEB
:107B200049B92B7B002B00F03781284603B0BDE814
:107B3000F04FFFF760BF252940F0B780002698F886
:107B400000302D2B424608F1010823D0302B24D0E1
:107B50002B2B25D000242A2B02F1010123D13B68D5
:107B60001A1D1B683A601C440A4613782E2B26D136
:107B700001324FF0000A104610F8011BA1F1300C41
:107B8000BCF1090F1DD80A2303FB0A13A3F1300A25
:107B90000246F0E746F00106D1E746F00206CEE7DE
:107BA00046F00406CBE711F8013CA3F130000928A8
:107BB000DBD80A2202FB0434303C0A46CBE74FF004
:107BC000000A12F8011B01F0FB0068289046F8D06B
:107BD000782909D86F290CD8632962D022D82529A1
:107BE00063D0582900F0888098F80030002B95D198
:107BF00097E770390829F7D801A353F821F000BF9F
:107C0000737D0200E97B0200E97B0200097D02002E
:107C1000E97B0200E77C0200E97B0200E97B0200CD
:107C2000F97C0200642901D06929DDD13A68D2F8D3
:107C30000090111D89EAE9723960A2EBE9724FF0F8
:107C4000010B092A35DCD34538BFD3462CB1B9F135
:107C5000000F01DB720700D5013CB30702D5BAF172
:107C6000000F03D0F00701D44CBB0024B9F1000F82
:107C70002DDAC9F100092D212846FFF7D5FE06F0BF
:107C80000302022A04D1BAF1000F01D11CBB002467
:107C9000CDE9004653460A2249462846FFF7DCFE56
:107CA000A2E73B681A1D19783A602846FFF7BCFE28
:107CB0009AE70A230BF1010BB2FBF3F2C1E7A345EC
:107CC000D4D220212846013CFFF7AEFECCE7710755
:107CD000D5D52B21D0E7A345DAD230212846013C67
:107CE000FFF7A2FED2E73968CDE900460A1D3A60E7
:107CF00053460A220968D0E739680A1D3A60CDE97F
:107D0000004653461022F5E73B681A1D3A6016F00C
:107D10000106D3F8009024D1B9F1000F03D04846F2
:107D200008F05BFD0646B4421DD809F1FF3919F889
:107D3000011F00293FF458AF2846FFF775FEF6E70C
:107D400028460136FFF770FE19F806100029F7D112
:107D5000A642BFF449AF20212846013CFFF764FE4C
:107D6000F6E70026F0E720212846013CFFF75CFEFD
:107D7000D9E73B681A1D3A60302128461C68FFF796
:107D800053FE78212846FFF74FFE00220823CDE955
:107D900000322146102280E703B0BDE8F08F00BF1B
:107DA0002DE9F743DDF8288088B93E4B3E483F4A2D
:107DB000C01AC0080E243E4B009400043D4940F018
:107DC000010002F038FB204603B0BDE8F0834AB959
:107DD000344B3548384AC01AC0080E24344B00943E
:107DE0000004EBE7D0F800E0BEF1000F09D12D4B05
:107DF0002D48324AC01AC00808242D4B00940004B4
:107E0000DCE74BB9274B28482D4AC01AC008092483
:107E1000274B00940004D1E74568D5F80490B3FBE4
:107E2000F9F509FB15354DB11E4B1F48254AC01AFF
:107E3000C00809241E4B00940004BFE78D0709D039
:107E4000184B1948204AC01AC0081024184B009437
:107E50000004B3E712F0030F09D0124B12481B4A7B
:107E6000C01AC0081024124B00940004A6E7C5688D
:107E7000A9420DD34D1EEC180569AC4208D8CDF8C7
:107E80002880DEF80C40A44603B0BDE8F04360470C
:107E9000044B05480E4AC01AC0081024044B009435
:107EA00000048BE7FC08030074090300E50A0300E3
:107EB0008E0C0300EA0A0300670B0300130B030098
:107EC000260B03006D0B0300970B0300AF0B0300A1
:107ED000D20B0300F7B580B92A4B2B482B4AC01AA6
:107EE000C0080E242A4B009400042A4940F00100E7
:107EF00002F0A1FA204603B0F0BDD0F800C0BCF1FA
:107F0000000F09D11F4B2048234AC01AC00808247B
:107F10001F4B00940004E8E74AB91A4B1A481F4A5D
:107F2000C01AC00809241A4B00940004DDE7456814
:107F3000D5F800E00EF1FF350D4209D0114B124883
:107F4000174AC01AC0081024114B00940004CCE753
:107F5000C568A9420CD34D1E0EFB02540569AC4204
:107F600006D8DCF81040A44603B0BDE8F0406047F6
:107F7000044B05480B4AC01AC0081024044B009457
:107F80000004B2E7FC08030074090300E50A0300DB
:107F90007B0C0300EA0A0300130B0300260B03000B
:107FA000F90B03001F0C030029DF704728DF70471F
:107FB00070B503689E6886B004460D466EB1142203
:107FC0000021684608F0B4FBA36805932379019566
:107FD0002BB1012B0DD06846B04706B070BD012310
:107FE0008DF8003023690293E36803936369049377
:107FF000F1E702238DF80030E3681B030293F5E7F5
:10800000034B187A0122B0FA80F05A744009704785
:108010009C2D002038B5234D234C2B7A3BB92349A6
:108020002348FFF79CFB206008B9686038BD022335
:1080300024682B72237973B1012B24D020460321AD
:10804000FFF7B6FF00232B726B6018491848BDE894
:108050003840FFF7AFBBD4E90523D21AB2F5805FF1
:10806000D4E9031028BF4FF480529208012A38BF88
:10807000012219441844FFF797FF50B11128DDD1B0
:1080800001232B72D2E7D4E903031844FFF78EFFD4
:10809000F3E72B7C002BC9D1BDE83840022000F06B
:1080A00009B800BF9C2D0020B42D0020B02D002069
:1080B0008C2D002038B5234C237A002B41D0022B85
:1080C00009D1032830D0204B00221B68E2601A79C6
:1080D0003AB1012A22D0637C7BBBBDE83840FFF770
:1080E00099BFD3E905128D1AB5F5805F94BF521977
:1080F00002F580529A619142EDD102284FF00003BF
:1081000008BF19462372104B18BF0D211868FFF7DE
:108110004FFF0E490E48FFF74DFBDCE71A690132AD
:108120001A615B699A42E7E7E3680133082B01D8DB
:10813000E360D0E70023E360DFE7BDE8384008F004
:1081400009B838BD9C2D0020B42D0020B02D002092
:108150008C2D0020831E012B01D8FFF7ABBF704789
:1081600000F0FD03012B08D1044B00225A74421E7B
:10817000504250411874FFF74DBF70479C2D0020AE
:108180002DE9F84FB0F806A04579D2F800B09DF877
:1081900028900AFB05F5043D88460BEB0301A94234
:1081A00003F1040488BFA5EB030BB4FBFAF6074602
:1081B0000AFB1644C2F800B04EB9AAEB04055D45AF
:1081C00028BF5D46BBF1000F04D1BDE8F88F3F68C2
:1081D000013EF1E7043408EB06003C442A46B9F1BD
:1081E000000F0DD02146ABEB050B08F078FADA450D
:1081F0002E443F6855464FF0000428BF5D46E1E736
:1082000001462046EFE7FFF7A1BBF8B546790146E6
:10821000721E0546002393422D6803D30024A64214
:1082200002D8F8BD0133F6E70F682846FFF7C9FB0F
:1082300001343946F3E72DE9F843068ACD1C074699
:10824000FFF79BFB043E35440446B5FBF6F5F0B161
:108250004FF48073EDB28380C680013D0760814694
:108260004FF00008A84512D23846FFF786FB0646B5
:1082700048B163790133637108F10108C9F800005E
:1082800007608146EEE72046FFF7BFFF34462046F1
:10829000BDE8F88301210430FFF73ABB10B5012196
:1082A00004460430FFF740FBC0B220B92046BDE8C9
:1082B0001040FFF7AABF10BD1FB503920022009225
:1082C00003AAFFF75DFF05B05DF804FB1FB503923D
:1082D0000122009203AAFFF753FF05B05DF804FBEB
:1082E00041DF7047064B10B500241C70054B1C6025
:1082F000BFF35F8F0449054800F00EF9204610BD1A
:10830000C02D0020C42D0020AC0C0300B82D00208F
:1083100007B500230DF107008DF80730FEF70AFBC3
:10832000F1EE103A23F09F03E1EE103ABFF35F8FB6
:108330000A4B4022C3F884219DF80700FEF71EFB7C
:1083400007F018FF20B103B05DF804EBFFF7C8BFDA
:1083500020BF40BF20BF03B05DF804FB00E100E098
:10836000026813685268934291BFD01A8068013046
:10837000801888BFC01A704703682DE9F0411F6854
:108380001E6815465A68964286BF83680133961B5D
:108390008846C268416888BF9E1BB542044607FBF9
:1083A00002110CD86A43404608F099F9A3683D448D
:1083B0009D4288BF002523681D60BDE8F08106FB53
:1083C00002F73A46404608F08AF9E2686168AD1B58
:1083D0006A4308EB070008F082F9ECE7036881685C
:1083E0001A685B688B4234BF01330023D31A5842AA
:1083F0005841704773B5002304460DF107000D4640
:108400008DF80730FEF796FA2046FFF7E7FF10B128
:10841000237C002B3BD12368A1685E685A688A429E
:1084200034BF013200225A6028B11A688A4234BF30
:10843000013200221A60E2686368511E072920D8C1
:10844000DFE801F004101F141F1F1F182A789A5527
:108450002046FFF785FF23689A68824200D2986021
:10846000002415E02A8823F81620F1E72A6843F84B
:108470002620EDE7D5E9000103EBC603C3E90001BF
:10848000E6E7294602FB063008F029F9E0E7042474
:108490009DF80700FEF772FA204602B070BD7FB566
:1084A000054601911446AAB10DF10F0000268DF882
:1084B0000F60FEF73FFA2846FFF752FFA0420199EE
:1084C0000BD322462846FFF757FF34469DF80F008E
:1084D000FEF754FA204604B070BD0524F6E737B520
:1084E000044600250DF107008DF80750FEF722FA2B
:1084F0000C222946206808F01BF99DF80700FEF7BA
:108500003DFA03B030BD836800225A60C3E90422FB
:108510009A60DA601A6070470B684A684360934259
:1085200008BF0023016008BF43607047436843B140
:108530000268916852680B449342436004BF002371
:108540004360704770B5446806460D46206818B110
:10855000B3682946984718B923682B60256070BD19
:108560002468F3E74368186808B102681A60704726
:108570004368186870474368186800B970478842B4
:1085800003D102681A600120704703460068F4E7CF
:1085900010B50D49A1F59472914201D800200FE069
:1085A0008C1AE30F03EBE4035B1002EBC30452F8F5
:1085B0003330834205D802D204F10802ECE7606848
:1085C00010BD2146E8E700BFB811030008B5FFF76A
:1085D000DFFF024B002808BF184608BD7B100300D0
:1085E00038B5074C051E04F1080318BF1C46236864
:1085F0002BB11A6822605B6828469847F7E738BDB8
:10860000D02D002020B9054B01225A70FFF7E8BF9A
:10861000012802D1014A9070F8E77047C82D002068
:1086200020B9034B01225A70FFF7DABF704700BF31
:10863000C82D002038B50E4C2378B3B90D486360BF
:10864000A3602361E36000F0C9F9054607F092FDDD
:1086500008B900F0CFF901232370074BD3F8003499
:108660000BB10123A370284638BD8525F5E700BF6F
:10867000C82D0020058602000000014037B50D4CD2
:1086800000230DF107008DF80730FEF753F9E3687A
:10869000013BE360E36833B9074BD3F8005415B9E5
:1086A00000F0BAF9A5709DF80700FEF767F903B06E
:1086B00030BD00BFC82D002000000140012813B5C7
:1086C0000CD0032820D038B9134B0122C3F88020E6
:1086D000BFF34F8FBFF36F8F02B010BD0F4C00235D
:1086E0000DF107008DF80730FEF724F923780BB958
:1086F000FFF7A0FFE3689DF807000133E360012363
:10870000A370FEF73BF9E7E700F074F902B0BDE8AB
:108710001040FFF7B3BF00BF00E100E0C82D00200C
:1087200031DF70471FB500238DF807000DF10F00F2
:108730008DF80F30FEF7FEF807F01CFD50B9094820
:108740000DF10701FFF756FE0648FFF747FE08B197
:1087500000F0ACFB9DF80F00FEF710F905B05DF8D6
:1087600004FB00BF9C08030007B520B103280DD00F
:1087700003B05DF804FB104B1B78012BF8D100F01F
:1087800095FB03B05DF804EB00F098BB00230DF1FE
:1087900007008DF80730FEF7CDF807480378012B66
:1087A00005D10649013000F041FB00F06DFB9DF85A
:1087B0000700FEF7E3F8DBE72C2E002025870200F8
:1087C00013B5124C2378FBB9114A8DF807300028F5
:1087D00008BF10460288A4F801200DF10700FEF73B
:1087E000A9F807F0C7FC30B90A49601C00F01EFB6D
:1087F00040B900F049FB9DF8070001232370FEF704
:10880000BDF8002002B010BD8520FBE72C2E002013
:10881000C21103002587020007B500230DF10700F0
:108820008DF80730FEF786F807F0A4FC18B900F0C1
:108830003DFB00F043FB9DF80700FEF79FF804485E
:10884000FFF74DFE034B00221A7003B05DF804FBE6
:108850009C0803002C2E00202DE9F7430024DFF8AC
:10886000589005460E46A0460DF107008DF807808A
:10887000FEF760F807F07EFC074638B93246294615
:108880004846FFF70CFE044600F0FEFA9DF807008C
:10889000FEF774F847B131462846FFF741FF42F230
:1088A00007039842044605D0022CDDD0204603B0D1
:1088B000BDE8F0830524F9E79C080300F8B50546F8
:1088C0000C4604B9F8BD402C264628BF4026F7B216
:1088D00039462846FFF7C0FF0028F9D1A41B3544CC
:1088E000EFE700001FB503788DF80030436801936F
:1088F00083688DF80830C368054A0393054B6846C2
:1089000053F8213052F82110984705B05DF804FB68
:10891000302E0020342E00201FB503788DF8003053
:108920004368019383688DF80830C368054A039350
:10893000054B684653F8213052F82110984705B08E
:108940005DF804FB302E0020342E0020F0B5194BCA
:1089500090F800C091F81DE043F82C20164B164605
:108960000A6943F82C20154B03F80CE00C46074627
:108970000FCC89B06D460FC594E80F0085E80F0055
:10898000CDF810C0BEF1000F09D0002E0C4A694688
:1089900008BF3246381D00F0B9FD09B0F0BD002E09
:1089A000084A694608BF324607F10C0000F090FB08
:1089B000F3E700BF342E0020302E0020382E002098
:1089C000E58802001989020000F18040002382B08E
:1089D000036003680193019B02B07047044A137956
:1089E00023B9012110609180184670478520704797
:1089F0003C2E0020074B1A68D20704D4C02283F80B
:108A0000002301221A604FF080430122C3F8182589
:108A1000704700BF00E100E04FF0804208B502233C
:108A2000C2F808334FF48270FFF7CEFF0123D36002
:108A3000D2F81834DB03FBD408BD00004FF08041AE
:108A400010B5D1F8003163B14FF48070FFF7BCFF6F
:108A50000D4B58790122C1F8082310B95A711B68CF
:108A600098474FF08042D2F8043163B14FF48270DE
:108A7000FFF7AAFF0223C2F80833034BBDE81040FA
:108A80001B680120184710BD3C2E002000F18040DB
:108A900000F5C040002382B0036003680193019B8E
:108AA00002B07047800000F1A040D0F8002722F407
:108AB0004032C0F80027D0F8003743EA0141C0F83F
:108AC00000177047054B4FF0FF32072843F820206E
:108AD00084BFC01880F84820704700BF442E002093
:108AE00010B51A4C94F858306BBB4FF0FF3222FA95
:108AF00003F1C90748BFE11803F1010348BF81F83A
:108B00003020202BF3D10021C8B20131FFF7DAFF6A
:108B10000C29F9D1042200210D4807F009FE0D4B64
:108B2000C02283F8062340221A604FF4BE70FFF77C
:108B3000ADFF094B4FF00042C3F80423012384F832
:108B40005830002010BD0820FCE700BF442E002054
:108B5000982E002000E100E000600040034B93F8F5
:108B60005800003818BF0120704700BF442E002075
:108B700030B52E4B1A1892F93040013453D18C780D
:108B8000002C4CD01C46002254F8045B013541D126
:108B90001C1884F83020002443F82240920002F18F
:108BA000804202F5C0420B78D2F810554C7825F47B
:108BB00098151B04240525F4F85504F4801403F4D7
:108BC0004033C2F8105523430402D2F8105504F480
:108BD000F85423432B43C2F810354A780123012A65
:108BE0004FF0A04203FA00F30CBFC2F80835C2F8F8
:108BF0000C3500F5E073032142F82310C2080C493C
:108C0000012300F0070003FA00F08B5C184388543E
:108C1000002003E00132082AB6D1042030BDFE2333
:108C200082F83030D9E70820F8E700BF442E002052
:108C3000982E0020012303FA00F04FF0A043C3F860
:108C400008057047012303FA00F04FF0A043C3F872
:108C50000C057047074B184490F930309B0003F126
:108C6000804303F5C043D3F8102542F00302C3F854
:108C700010257047442E00202DE9F74F00244E4D5B
:108C800001944FF48072012102F1804303F5C04347
:108C900090B21B68012B06D1D5F804330B4202D0E9
:108CA000FFF7F4FE0C430432B2F5907F4FEA410126
:108CB000EAD1414BD3F87C31012B0CD14FF4BE707B
:108CC000FFF7E4FE4FF0A04344F00044D3F8202522
:108CD0000192C3F82025E3B2D3B1384F0025012615
:108CE000344210D0AB0003F1804303F5C043D3F806
:108CF0001005D3F8101557F8253023B1C1F3014101
:108D0000C0F3042098470135082D4FEA4606E7D105
:108D1000002C48DA294D4FF0A048294E4FF00009A9
:108D2000012716F9013B5A1C31D0C3F3C20202A934
:108D30000A44DCB212F8042C03F03F0A03F00703E4
:108D400007FA03F31A4222D00AF5E073504658F8A6
:108D50002330C3F3014BBBF1020F0CBF03210221EF
:108D6000FFF7A0FE07FA0AF3C8F8203505EB0A035F
:108D700093F9303055F823304BB1A109032904D0C1
:108D8000BBF1020F12D1012901D15046984709F1D8
:108D90000109B9F1040FC4D1D8F820350193C8F8FE
:108DA0002035002BB9D103B0BDE8F08FBBF1030F24
:108DB000EDD10229E8E700BF00600040442E00200A
:108DC000942E0020014B1B68184700BFA02E0020E6
:108DD0000E4B984237B50C4602D0002003B030BD90
:108DE00000230DF107008DF80730FDF7A3FD084BB8
:108DF0001D7915B901221C601A719DF80700FDF755
:108E0000BDFD002DE9D01120E8E700BF00200040A3
:108E1000A02E0020034B984201BF034B00221A6092
:108E20001A71704700200040A02E002010B5124C8F
:108E30002378FBB9114B1960037813F0010F104B25
:108E40001EBFD3F8042542F00102C3F80425D3F86D
:108E5000002222F00102C3F800224378094A5B0194
:108E6000DBB282F80D334FF40053136001232370FB
:108E7000002010BD8520FCE7AC2E0020A82E00208D
:108E800000D0004000E100E0074B0022C3F80021C1
:108E900082B0D3F800210192019A0122C3F8042381
:108EA0001A6002B0704700BF00D00040024B0122A0
:108EB000C3F808235A60704700D00040084B0122D5
:108EC000C3F808235A60074B4FF40052C3F88020C0
:108ED000BFF34F8FBFF36F8F034B00221A707047A1
:108EE00000D0004000E100E0AC2E0020074B002243
:108EF000C3F8002182B0D3F800210192019AD3F87F
:108F00000805034B1B68C0B202B0184700D00040F0
:108F1000A82E00200023435082B043580193019BA8
:108F200002B070470A4610B54FF48E71FFF7F2FF9A
:108F3000136A9168C95C136A01331362C0F81C1587
:108F400010BD8B690A4610B54FF4847123B9FFF741
:108F5000E1FFD0F8183510BDFFF7DCFF536AD16888
:108F6000D0F81805C854536A01335362F3E7000080
:108F70001FB501238DF80030044BCDE90110D3E972
:108F800000126846904705B05DF804FBB02E002043
:108F900030B54D4DD5F804339A0585B051D5D5F887
:108FA0002431002B4DD04FF492712846FFF7B2FFC9
:108FB0004FF40173C5F80833444B93F829200AB9DC
:108FC00001226A60404902228DF80020D1F88024F5
:108FD000C1F8802403929A690292DA680192002211
:108FE000C3E906226846D3E9001290473648D0F814
:108FF0001C315BB1354A5169136A99424DD992F8D7
:109000002830002B49D11146FFF78CFF2E48D0F8AD
:109010004431002B56D04FF4A271FFF77BFF2B4B4E
:1090200093F829200AB1012202609A69002A49D0E6
:10903000586AD96800229A6105B0BDE83040FFF750
:1090400097BFD5F804335B07D0D5D5F80831002B8E
:10905000CCD01E4C1C482146FFF773FF636AA269FF
:109060009A42C3D1E369E1684BB1A3612369E3602C
:109070000023606AE3616362FFF77AFFB6E794F862
:1090800029300BB901236B600F4B4FF40172C3F809
:1090900008230023606AA361EEE70B484FF48E714A
:1090A000FFF738FF5369002BB0D0516902910023BC
:1090B00091688DF80030019153616846D2E9001340
:1090C0009847A3E705B030BD00200040B02E002037
:1090D0002DE9F843534D90F804802C2303FB0853EB
:1090E000064693F82A300C469146002B40F09680B5
:1090F0004D490068FFF76CFE0746002840F090805D
:1091000022683068511C0BD04FF0A04101239340DE
:10911000C1F8083502F5E0734FF0030C41F823C0A5
:1091200061684B1C1FBF01F5E0734FF0A04C4FF07E
:10913000000E4CF823E0A369C0F8243594F814C05D
:10914000637DBCF1010F4CEA0303C0F86C35C0F835
:109150001415C0F80C251DD1A268531C1FBF02F5C1
:10916000E0734FF0A0414FF0000C41F823C0E368DA
:10917000591C0BD04FF0A04C01219940CCF8081598
:1091800003F5E0714FF0030E4CF821E0C0F808350C
:10919000C0F810252C2202FB08F2AB18C3F804908B
:1091A0002369AB50B9F1000F20D04FF48E71247FAA
:1091B000FFF7B0FE4FF4A2713068FFF7ABFE3268E4
:1091C0001A4BC2F80433130B42F307326101002A31
:1091D000C9B21EDB1648841884F800130121520915
:1091E00003F01F0301FA03F340F82230336804222E
:1091F000C3F800252C2303FB08530022C3E90622F1
:1092000083F829205A61012283F82A203846BDE8D4
:10921000F883084A03F00F03D154E7E70827F5E77E
:109220001127F3E7B02E0020918F0200800002008A
:1092300000E100E014ED00E0F8B503680579304C7A
:109240000022C3F800252C2202FB05425268A2B17D
:109250002C4AC3F808231A0B43F30733002B0CDB0B
:1092600002F01F015B0901228A402033264941F8A0
:109270002320BFF34F8FBFF36F8F0068D0F80C65CA
:10928000D0F81415D0F80835D0F810254FF0FF3776
:10929000BE42C0F8147518BF06F5E076C0F80C752C
:1092A000C0F80875C0F810751EBF4FF0A0474FF00A
:1092B000020C47F826C04E1C1FBF4FF0A04601F518
:1092C000E071022746F82170511C1FBF4FF0A041EA
:1092D00002F5E072022641F822605A1C1FBF03F516
:1092E000E0734FF0A042022142F82310FFF792FDF5
:1092F0002C2303FB0544002384F82A306360F8BD67
:10930000B02E00208402020000E100E00279044B4C
:109310002C2101FB02335869003818BF0120704727
:10932000B02E00202DE9F84F064690F804808946BB
:109330009246FFF7EBFF044600283CD1204F2C2536
:1093400008FB057B4FF48E71CBF814A0CBF8089086
:10935000CBF820008BF828003068FFF7DBFD306881
:10936000012383605946FFF7DDFDDBF804305D46DD
:109370001BBB3068DBF814402B6A9C4211D8336861
:10938000D3F81C21002AFBD00122DA6000202C2314
:1093900003FB087700237B61BDE8F88F95F8283040
:1093A0003BB9D0F81C31002BF8D05946FFF7BAFD75
:1093B000E2E70F20EBE71120EEE72046ECE700BFE5
:1093C000B02E00200023435082B043580193019BEC
:1093D00002B070471FB501238DF80030044BCDE972
:1093E0000110D3E900126846904705B05DF804FB10
:1093F000DC2E00207FB5434AD2F82461002E60D0D5
:1094000010464FF49271FFF7DDFF02238DF8003014
:10941000D2F88034C2F880340393D2F83C350293FA
:10942000394BDA6801920022C3E906226846D3E983
:10943000001290473348D0F8443173B14FF4A27111
:10944000FFF7C0FF304B9A693AB10022C3E9062208
:10945000D968D0F83C05FFF7BDFF2A48D0F8203185
:10946000ABB14FF49071FFF7ADFF0123C360264B02
:109470005A6962B1D0F84C150291002299688DF8B2
:10948000002001915A616846D3E9001290471D48B7
:10949000D0F858319BB14FF4AC71FFF793FF1A4BE2
:1094A0005A6962B1D0F84C150291002299688DF882
:1094B000002001915A616846D3E90012904704B038
:1094C00070BDD2F81031002BB4D04FF48871104623
:1094D000FFF778FF0C4BD2F83C0599698842A9D177
:1094E000DC69D96864B1D2F8005225F02005C2F8D1
:1094F00000521A699C61DA60DE61FFF76BFF99E741
:109500009C61FAE700200040DC2E00202DE9F843A2
:109510005A4E90F80480242303FB0863044693F812
:1095200020300D469146002B40F0A380544900683E
:10953000FFF74EFC0746002840F09D802A6820680F
:10954000511C0BD04FF0A04101239340C1F80835C6
:1095500002F5E0734FF0030C41F823C069684B1C1F
:109560001FBF01F5E0734FF0A04C4FF0000E4CF818
:1095700023E0AB69C0F8243595F814C06B7DBCF1CD
:10958000010F4CEA0303C0F86C35C0F80C25C0F895
:1095900014151DD1AA68531C1FBF02F5E0734FF0CC
:1095A000A0414FF0000C41F823C0EB68591C0BD0D0
:1095B0004FF0A04C01219940CCF8081503F5E0715B
:1095C0004FF0030E4CF821E0C0F80835C0F8102524
:1095D000242202FB08F2B318C3F804902B69B3509D
:1095E000B9F1000F2FD04FF488712A7FFFF7EAFE00
:1095F00020684FF49071FFF7E5FE20684FF49271F8
:10960000FFF7E0FE20684FF4A271FFF7DBFE4FF496
:10961000AC712068FFF7D6FE23681A49C3F804131B
:10962000190B43F307335201002BD2B21CDB16484F
:10963000C51885F8002301225B0901F01F0102FA19
:1096400001F140F8231023680822C3F800252423E1
:1096500003FB08660023C6E906337361012386F81D
:1096600020303846BDE8F883084B01F00F015A540A
:10967000E9E70827F5E71127F3E700BFDC2E002014
:10968000F59302001003420000E100E014ED00E059
:10969000F8B5444C0579242303FB054302465B6877
:1096A0000068ABB1404BC0F8083340F30733002BE0
:1096B0004FEA10310CDB01F01F065B090121B140BC
:1096C00020333A4E46F82310BFF34F8FBFF36F8F0E
:1096D000D0F8003223F02003C0F80032242303FB2B
:1096E00005439B692BB14FF4A271FFF76BFE012379
:1096F00043604FF4AC71FFF765FE0123C360242380
:1097000003FB0543D0F858110029FBD0996919B122
:10971000D0F844110029F5D00023C0F800351368B3
:10972000D3F80C75D3F81465D3F80825D3F81015C1
:109730004FF0FF3C6745C3F80CC518BF07F5E0774D
:10974000C3F814C5C3F808C5C3F810C51EBF4FF051
:10975000A0434FF0020C43F827C0771C1FBF4FF007
:10976000A04306F5E076022743F826704E1C1FBF83
:1097700001F5E0714FF0A043022643F82160531C2D
:109780001FBF4FF0A04302F5E072022143F8221000
:10979000FFF740FB242303FB0544002384F820301B
:1097A0006360F8BDDC2E00201003420000E100E001
:1097B0000279044B242101FB02335869003818BF99
:1097C00001207047DC2E002001F06043B3F1005F00
:1097D0002DE9F0470646884692463BD190F8049022
:1097E000FFF7E6FF0446002836D11D4F30682425D8
:1097F00005FB09754FF49071C5F814A0C5F80880F1
:10980000FFF7E0FD4FF4AC713068FFF7DBFD336824
:109810006A69A968C3F84415C3F8482501229A600B
:109820006A68DAB9D3F82021D3F858011AB90028A8
:10983000F8D00F2007E00028FBD10122DA60D3F82E
:109840005821002AFBD0242303FB097700237B61E6
:10985000BDE8F0871020FBE71120F9E72046F7E785
:10986000DC2E002000F1804000F5E040002382B0B3
:10987000036003680193019B02B07047F0B5524B3F
:10988000524CD3F8043185B0002B3DD094F82E20F3
:109890004FF48270FFF7E6FF2AB394F82F3013BB22
:1098A000494AD2F80031002B32D04FF48070FFF7D4
:1098B000D9FF638B94F82D00834250D921891B1A5C
:1098C0009BB289B26383CB1A616801EB4303C2F890
:1098D0002C36C2F830064FF48270FFF7C3FF3A4BC4
:1098E00001225A6014E0636802932389ADF80C30BA
:1098F000E36800218DF8041033BB2374236801A8AA
:109900009847002384F82F3094F82E30002BC7D1CD
:109910002D4BD3F810315BB14FF48870FFF7A2FFE5
:109920000023237402238DF8043001A8236898478C
:10993000254BD3F81431EBB14FF48A70FFF792FF47
:109940000023237405B0F0BD208B60836360208109
:10995000E160002AD2D11C4B01221A60CEE7BAD1B5
:10996000E368012184F82F1013B100216183AEE771
:109970006383B0E766694FF000470125002EE1D010
:10998000B6FA86F227FA02F34632920026EA030676
:1099900002F1804303F5E0431B68002BEED0104634
:1099A000A2F58C72FFF75EFFD30882F00402C2F3C7
:1099B00080028DF808308DF8045023688DF8092056
:1099C00001A89847DAE700BF00700040002F002090
:1099D00038B5204A92F82C300446002B37D111605C
:1099E0001D490078C1F8F0056078C1F8F40501253B
:1099F000E078137482F82D30536182F82F306FF0C5
:109A0000004382F82E0082F82C504FF48270C1F887
:109A10000833FFF727FF4FF48070FFF723FF4FF461
:109A20008A70FFF71FFFA3780C485B01DBB280F858
:109A30000733802303600223C1F8043392F82E30E9
:109A40000BB1C1F80453C1F80055002038BD0820FF
:109A5000FCE700BF002F00200070004000E100E0A4
:109A600070B52A4B1A7C02F0FF05002A4BD10A7907
:109A7000012A9CBF264CC4F8005500F10C0503EBED
:109A80004504247924B993F82D40013483F82D40FE
:109A900003EB4503CC790D7A8E781C715D714B78A0
:109AA00036021B0106F4E06603F0300333430E7800
:109AB00006F003063343CE78360306F4805633436C
:109AC000160406F4E02633434E798979360506F408
:109AD00080160906334301F080710B430C4901EBFA
:109AE0000016000100F1804000F5E040012AC6F8B0
:109AF0001835C0F81455C0F8104502D80123C1F834
:109B00000035002000E0112070BD00BF002F0020B4
:109B10000070004070B5264A264B05461220C2F858
:109B200008031C7C022C03D1C2F80403112070BD71
:109B3000187C01281CD1D86818B10223C2F804335C
:109B4000F4E7DD60198393F82E305BB9D2F8003169
:109B5000002BFBD04FF48070FFF784FEC2F82C5628
:109B6000C2F83016124B0222C3F804230020DEE7AD
:109B7000022093F82E40C2F80403012600201E7430
:109B80005D601981D8603CB1598393F82D30C2F8DB
:109B90002C56C2F83036CAE7C2F82C564FF4807003
:109BA000C2F83016FFF75EFE16602046BFE700BF22
:109BB00000700040002F0020074B197C0129CAB219
:109BC00008D193F82E00054B10B11A6000207047A1
:109BD0005A60704708207047002F00200070004036
:109BE000F0B51B4F8BB207EB001443EA0243C4F8F5
:109BF0001C35184B40005C6900F1010C4FF0004629
:109C000011F5006F26FA0CF64FF0800505FA00F505
:109C10000BBFB44334435C615C610CBFC7F80853AD
:109C2000C7F8045340244FF000455969844025FA91
:109C300000F040F2FF75AA42054A0BBF8143014381
:109C4000596159610CBFC2F80843C2F80443F0BD22
:109C500000700040002F002010B5124B1A7CF2B9A2
:109C600000F10C0103EB4102127922B193F82D208F
:109C7000013A83F82D2003EB410300249C8003016B
:109C800003F1804303F5E0430749C3F8144540F26C
:109C9000FF72C3F81045FFF7A3FF204610BD112047
:109CA000FCE700BF002F002000F8FFFF38B5144B81
:109CB0006FF00042C3F80823124A8021C2F88010D6
:109CC000BFF34F8FBFF36F8F01229A6042F2107281
:109CD000D3F8141109B9013AFAD10B4D0024C3F895
:109CE00000452C7405EB44031B7F13B1E0B2FFF772
:109CF000B3FF0134082CF5D1002385F82C3038BD92
:109D00000070004000E100E0002F002070470000DC
:109D100007B5044B0093044A402300F032F803B027
:109D20005DF804FB2D9D0200312F00202DE9F84342
:109D300088461446B2B10F4B0F4E0325002743F05F
:109D40000109224608EB0701002001F0CBFF074480
:109D5000241A48B933782BB14FF47A40C847013DF3
:109D600002D13570BDE8F88301233370002CE8D1AF
:109D7000F8E700BFF0110300302F0020704701F01A
:109D8000E1BFF0B595B01D46164608460C46FEF7F5
:109D900081FA1A9B0D93CDE9086500252B46082210
:109DA00005A920460A958DF82C500C95FEF78EFAE1
:109DB000079B0293069B03939DF814308DF8115076
:109DC00003F00302012A1DD1BDF81420059DC3F341
:109DD000C203C2F383168DF81030B20008230EA917
:109DE0002046FEF773FAC5F3952508AB009332467B
:109DF00002AB0EA9284600F0C1FB2046FEF74EFA42
:109E000015B0F0BD022AF8D1BDF81650C3F3C20355
:109E1000C5F389158DF810300827082D2E4628BF68
:109E200008263B4632460EA92046FEF74FFAAD1BE8
:109E300008AB02AA31460EA8374400F003FC002DFF
:109E4000EBD1DAE7014B01221A707047B22F0020E4
:109E50007047000070B50E4D06460FCD88B06C46B9
:109E60000FC495E80F00002E84E80F00094A0A4845
:109E70004FF0060308BF002269460093FEF766FD17
:109E800008B1FCF76BFB054B1E7008B070BD00BF3E
:109E900004120300459E0200EC2B0020712F0020CD
:109EA00007B5044B0093044A4023FFF76AFF03B051
:109EB0005DF804FBBD9E0200722F002038B50D48EE
:109EC0000D4C0E4D002323700378EB5CD2B263B1CE
:109ED0000430FFF779FC08B1FCF740FB084B1A7817
:109EE00012B12378002BFBD038BD0C30FFF71AFAE3
:109EF000F1E700BFEC2B0020B22F0020382E00200D
:109F0000712F002008B50848084A0378D35C3BB19C
:109F10000430FFF7BDFBBDE808400020FFF79ABF03
:109F20000C30FFF789F9F6E7EC2B0020382E0020E3
:109F30000120FFF78FBF000038B50A4DFFF71FFF64
:109F40000421284600F084FA074B01245C71FFF7D6
:109F5000EFFF042105F1100000F07AFA034B5C7169
:109F600038BD00BFFC090300002C0020082C002095
:109F7000037813F0040216D003F00303012B03D07F
:109F8000022B09D0012070470A6800880232C0F312
:109F9000831002440A60F5E70B684288023303EB42
:109FA00092130B60EEE71046704700002DE9F04F6A
:109FB000DFF81CA187B00F4600230446861C0DF174
:109FC000070015468DF80730FCF7B4FCDAF80420DA
:109FD0003A60DAF8083003F580739B1A0AF21C47DE
:109FE0000AF583690AF21448B3421AD30020002DFF
:109FF00069D004F00F039B0143F0050363F30F00E6
:10A00000DAF80430DAB2033233444AF822009DF819
:10A010000700CAF80430FCF7B1FC012007B0BDE826
:10A02000F08F01213846FDF773FC4846FDF788FCA8
:10A030004046FDF785FCDAF808000290C0B2033014
:10A040000AEB800002A9FFF793FF029B30BBDAB254
:10A050000AEB8202D16803919A1C0133DBB20AEB4E
:10A0600083030292D3F80CB001F00303012B22D03A
:10A07000022B15D083464046FDF765FC10B1029BCC
:10A08000CAF8083059463846FDF742FCDAF808307D
:10A09000DAF8042003F580739B1AA5E7D8B2CEE75F
:10A0A000BDF80E30C3F3891303334FEA1B4B02EBA9
:10A0B00093030293DFE7BDF80C30C3F383134FEA39
:10A0C0001B4B1344F5E7A40544F0060098E700BFD6
:10A0D00084300020064B074810B500221A70FEF7A6
:10A0E00092F8044610B90448FEF70DFA204610BD58
:10A0F00084300020E00803006812030030B50A4CE9
:10A1000071B10A4A0A49121BD20800239A4201D1AE
:10A11000002030BD31F82350854202D00133F5E7ED
:10A12000034654F83300F4E7FC080300FC0903007D
:10A13000E42B0020094B013903EBC000032909D8A7
:10A14000DFE801F00A020406042070470079704736
:10A15000407970470020704702207047FC080300D8
:10A16000034BD3E90130C31A58425841704700BF2E
:10A17000843000202DE9F04186B0FFF7F1FF05465D
:10A18000002840F0ED80774CC4F81804BFF34F8FDF
:10A19000A3680293DBB2033304EB830002A9FFF749
:10A1A000E7FE029B18B1D4F81824002A5AD0DAB27C
:10A1B000991C013304EB8202DBB204EB8303D26807
:10A1C000DB68049302F00303022B0392029154D143
:10A1D000BDF80E306448C3F38917502F3E4628BFA0
:10A1E000502606F1080166F38F13C1F30901ADF89B
:10A1F0000E30FEF720F80546002800F09C80FEF7A0
:10A2000049F80023082203A92846FEF755F80299C9
:10A21000CB43DBB20133C9B20331B6EB830F4FEA54
:10A22000830204EB810125D95FFA82F80823A6EBAB
:10A2300008062846FEF740F8F6B208F108034B4935
:10A2400003F0FC0332462846FEF736F8029B03373C
:10A2500003EB97070297D4F81834002B43D1D4F8B6
:10A26000106453E062689A4294D8A260284606B00F
:10A27000BDE8F08108233246E5E7012B5BD1BDF84C
:10A280000C303948C3F38311062928BF062161F336
:10A290008913023101F00F018900ADF80C30FDF790
:10A2A000CAFF0546002846D0FDF7F4FF0023082228
:10A2B00003A92846FEF700F80026BDF80C20C2F3DB
:10A2C0008312B300964203F10803C4D202994A1CD8
:10A2D000C9B20331029204EB810104222846FDF742
:10A2E000EBFF0136E9E72846FDF7D8FFFFF738FF17
:10A2F00080F00100C5B2B9E7F3685B7923B1336838
:10A3000029461B6830469847F3681E68002EF3D133
:10A310002846FDF7C3FF0DF107008DF80760FCF735
:10A3200009FBD4F818340BB9029BA3609DF8070011
:10A33000FCF724FBDAE7D4F8104454B90C4B0D4871
:10A340000D49C01AC008000440F0020000F05CF89B
:10A35000CCE7236820469B689847E3681C68ECE7D5
:10A36000002583E784300020E008030090300020BF
:10A37000FC08030034090300511203002DE9F347E0
:10A3800004460E46924601A9012218469946FFF757
:10A390000DFE1B4F10B3019D4FF00008AA1CC845CD
:10A3A00008EB020123D117480021FDF76AFA80F378
:10A3B0001000000440EA1440E4006B1C04F0380470
:10A3C000DBB2EDB244F0010407EB8303033544EA4A
:10A3D000881444EA8624D86047F825403B781BB1AE
:10A3E000FFF7C8FE0028FBD102B0BDE8F087C9B274
:10A3F00007EB81015AF82830CB6008F10108CEE75D
:10A4000084300020A034002000231A46FFF7B6BF96
:10A4100007B50123019201AAFFF7B0FF03B05DF871
:10A4200004FB07B5CDE9002302236A46FFF7A6FF28
:10A4300003B05DF804FB1FB5CDE90123069B039330
:10A4400001AA0323FFF79AFF05B05DF804FB0000A3
:10A4500030B50F4CD4F8102403460020114631B912
:10A46000D96808714AB9C4F810340A6030BDC968A7
:10A470000D79854206D00968F1E7D26814680C604E
:10A480001360F3E701300A28E8D14FF0FF30EDE721
:10A490008430002038B5084B0125D3F810441D70D6
:10A4A00004B938BDE3685D71236820465B6898474E
:10A4B000E3681C68F4E700BF8430002030B5C3882F
:10A4C00085B004460D4633B1144A00921449154A2A
:10A4D0002846FDF79BFA217A05291DD0637A4BB1F6
:10A4E000A088FFF727FE104B104953F8202028467C
:10A4F000FDF78CFA227A0E4BA08853F822200392A3
:10A500000021FFF7FBFD039A0A490346284605B0E0
:10A51000BDE83040FDF77ABA05B030BD94120300B3
:10A520007C1203007412030000130300D6360300EC
:10A53000241303009912030007B503460846197A4D
:10A54000052911D05B7A2BB1094A0A490190FDF720
:10A550005DFA019808490190FDF758FA019803B097
:10A560005DF804EBFDF747BA002AF8D0F2E700BF28
:10A5700094120300D6360300911203002DE9F04334
:10A5800085B01F460C9D002395F80C902B73064652
:10A590000C46904629463846FFF790FFB8F1060F63
:10A5A00009D8DFE808F00412181F283340003146AC
:10A5B0002846FDF72BFA002229463846FFF7BCFF54
:10A5C00085F80C9005B0BDE8F08322683146284636
:10A5D000FDF71CFAEFE7D4E9002331462846FDF7E2
:10A5E00015FAE8E7A36800933146D4E9002328462A
:10A5F000FDF70CFADFE7E3680193A36800933146A7
:10A60000D4E900232846FDF701FAD4E72369029331
:10A61000E3680193A36800933146D4E900232846F8
:10A62000FDF7F4F9C7E76369039323690293E368CD
:10A630000193A36800933146D4E900232846FDF72F
:10A64000E5F9B8E708292DE9F74F80460E46174689
:10A650001C463CD8002593F80C901D7319461046F3
:10A66000FFF72CFFDFF888A0DFF888B0AE4231D9C1
:10A6700018F8052059462046FDF7C8F90135082D80
:10A68000F4D11949194DDFF870A02046FDF7BEF945
:10A690004FF0000B5E4522D918F80B207E2A05D812
:10A6A0001046019205F0C2FF019A00B92E225146D0
:10A6B0002046FDF7ABF90BF1010BBBF1080FE9D117
:10A6C000012221463846FFF737FF84F80C9003B08B
:10A6D000BDE8F08F51462046FDF798F9CEE72946B0
:10A6E0002046FDF793F9E6E7AD120300AB12030035
:10A6F000A9120300A3120300AF1203004FF48C72DF
:10A70000002106F015B818B14FF48C7100F052BE5C
:10A7100070470000C02AF0B541D0B2F5807F40D02C
:10A72000802A40F0C5800A230446036000F1080334
:10A73000520944F8043F01EB82028A4233D1036894
:10A740000C2B3ED00E2B6CD00A2B26D15A4D5B49D8
:10A7500000F1A006426955F8044B8768C2F307234D
:10A760007C40CB5C6340140E10300C5D83EA0443E4
:10A77000D4B20C5D83EA0463C2F307440C5D83EA40
:10A78000042350F8044C836063400468C360634052
:10A790000361534043618642DCD100208AE00C23F0
:10A7A000C2E70E23C0E78B784D781B0443EA0523EC
:10A7B0000D782B43CD7843EA056344F8043F043118
:10A7C000BBE73D4C3D4900F1C005C26954F8046B3C
:10A7D0008768C2F307237E40CB5C7340160E1830A7
:10A7E0008E5D83EA0643D6B28E5D83EA0663C2F3CA
:10A7F00007468E5D83EA062350F80C6C8360734035
:10A8000050F8086CC360734050F8046C03617340E7
:10A8100006684361734083615340C3618542D4D16C
:10A82000BBE7254D254900F1E006446A55F8042BA5
:10A830008768C4F307237A40CB5C87695340220EB4
:10A8400020308A5C83EA0243E2B28A5C83EA0263D4
:10A85000C4F307428A5C83EA022350F8142C836015
:10A86000534050F8102CC360534050F80C2C036137
:10A870005340DAB243618A5C7A401F0ECF5D82EAB0
:10A880000762C3F30727C3F30743CF5DCB5C82EABC
:10A89000072282EA034350F8042C83615340026884
:10A8A000C36153400362634043628642BDD174E793
:10A8B0006FF01F00F0BD00BF382403003813030001
:10A8C0002DE9F04F97B043680D680E951C68A84FAE
:10A8D000A84E6C400E945D684C686C400F949D6867
:10A8E0008C68C9686C40109403F11004DB68A24DB9
:10A8F00000944B40119303680D945B100393013B4C
:10A9000004930193002320460293DDE90EE1C1F395
:10A910000723DDF840C057F823300693CCF30743F4
:10A92000CCF3072856F823300793119B57F828409B
:10A930000894C3F307484FEA1C6956F82840099465
:10A94000C3F307285FFA8CFC57F828400A94CEF32B
:10A950000748203056F828400B94CEF3072857F8C4
:10A9600028400594C1F30748844C56F828B054F8A1
:10A9700029A05FFA83F84FEA116955F82880C9B217
:10A9800088EA0A0A55F82C8054F829C055F8211095
:10A990004FEA1E6988EA0C0854F829C05FFA8EFE57
:10A9A00081EA0C014FEA136C55F82E3054F82C90C4
:10A9B00083EA0909019B002BDDE9063483EA0403DD
:10A9C000089CA446099C8CEA040C0A9CA6460B9C95
:10A9D0008EEA040E00F3D680039C0498002C009CA1
:10A9E0004FEA4010D8BF002004442046029C04B126
:10A9F0000D900D9E3068B5687468434083EA09077E
:10AA0000F36812978BEA0A0B8BEA030B059B8EEA1D
:10AA1000050585EA08088BEA030B594DCDF854B0BB
:10AA2000FBB28CEA040CEC5C3369CDF850805C40DE
:10AA30004FEA1B638CEA0101EB5C139184EA036427
:10AA4000C1F30723C7F30729EB5C84EA0324C8F3A7
:10AA50000743EB5C84EA0344CBB20E94E85C736971
:10AA600058403B0EEB5C80EA0360C8F30723EB5CC5
:10AA700080EA0320CBF30743EB5C80EA03405FFAF4
:10AA800088F34FEA186815F803A0B3690F908AEAB3
:10AA9000030A0B0EC1F30741EB5C8AEA036ACBF3AE
:10AAA00007235FFA8BFBEB5C8AEA032AC7F30743B1
:10AAB000EB5C8AEA034A06F120030D93F66915F868
:10AAC0000B30CDF840A0734015F8086083EA0663A8
:10AAD00015F80960695C147083EA062383EA014370
:10AAE000210A5170210C9170010A5171010C917170
:10AAF0004FEA1A2151724FEA1A4191724FEA1A61D4
:10AB0000D172190A1071137351731193190C240E19
:10AB10001B0E000ED0719173D47082F808A0D3730D
:10AB20000EA8042100F046FC0FA8042100F042FC0E
:10AB300010A8042100F03EFC11A8042100F03AFC0A
:10AB400012A8042100F036FC13A8042100F032FC06
:10AB500014A8042100F02EFC15A8042100F02AFC02
:10AB60000DA8042100F026FC002017B0BDE8F08FEE
:10AB700038180300381C0300381403003820030081
:10AB80003813030050F8204C634083EA0903129302
:10AB900050F81C4C8CEA040C8CEA010CCDF84CC02B
:10ABA00050F8181C059C8EEA010181EA08011491F5
:10ABB00084EA0B0B50F8144C8BEA040B8BEA0A0A5C
:10ABC0003C4CCDF854A05FFA83F84FEA1A6E55F862
:10ABD000288054F82EE050F8104C88EA0E0ECCF382
:10ABE00007288EEA040E57F82880324C8EEA080EA9
:10ABF000C1F3074856F828808EEA080ECDF838E0F1
:10AC00005FFA8CF84FEA136E55F8288054F82EE05E
:10AC100050F80C4C88EA0E0EC1F307288EEA040E99
:10AC200057F82880234C8EEA080ECAF3074856F8D6
:10AC300028808EEA080ECDF83CE05FFA81F84FEAF2
:10AC40001C6E55F8288054F82EE050F8084C88EA1D
:10AC50000E0ECAF307288EEA040E57F82880154C0A
:10AC60008EEA080EC3F307485FFA8AFA56F828807E
:10AC70008EEA080E4FEA1168CDF840E055F82A1028
:10AC800054F828E0C3F3072381EA0E0E50F8041CA1
:10AC900057F82330CCF3074C8EEA0101594056F89F
:10ACA0002C3059401191019B013B019301230293E8
:10ACB0002BE600BF382003002DE9F04F97B0436822
:10ACC0000D680E951C68DFF8A8E2DFF8A8C2A54F52
:10ACD0006C400E945D684C686C400F949D688C6865
:10ACE000C9686C40109403F11004DB6800944B4079
:10ACF000119303680D945B100293013B2546039367
:10AD000001930024DDF8448010980E99C8F30723BE
:10AD1000C1F307295EF823300693C0F307435EF8BA
:10AD200029605CF823300793C8F307490F9B089606
:10AD30005CF829600996C3F307294FEA116A5EF8A7
:10AD400029600A96C1F30749C9B25CF829600B96DD
:10AD5000C0F3072920355EF829600496C3F307493C
:10AD60005CF8296005965FFA88F97F4E57F82990BC
:10AD700056F82AB04FEA186889EA0B0B5FFA80F997
:10AD800056F8288057F82990000E89EA08085FFADB
:10AD900083F956F8200057F829A04FEA13698AEA88
:10ADA000000A57F8213056F829005840019B002B23
:10ADB000DDE9063183EA0103DDE9081681EA0609C7
:10ADC000DDE90A1681EA060100F3D680029E039DA2
:10ADD000002E009E4FEA4515D8BF00252E4404B131
:10ADE0000D960D9F3C68BE687D6863405840059B8A
:10ADF000129083EA0B0BFB688BEA030B049B7140F8
:10AE00008BEA030B594ECDF854B0C3B289EA05055D
:10AE100016F803E03B6985EA0A058EEA030E2B0E5D
:10AE200081EA0804F35C13958EEA036ECBF30723E3
:10AE30001494F35C8EEA032EC4F30743C4F307288B
:10AE4000F35C8EEA034EEBB2CDF838E016F803C09F
:10AE50007B698CEA030C230EF35C8CEA036CC0F371
:10AE60000723F35C8CEA032CCBF30743F35C8CEAF7
:10AE7000034CE3B2CDF83CC0F15CBB6959404FEAEA
:10AE80001B635FFA8BFBF35C81EA0361C5F3072365
:10AE9000C5F30745F35C81EA0321C0F30743000EC5
:10AEA000F35C81EA034107F120030D93FF6916F873
:10AEB0000B301091305C11727B4083EA006316F80E
:10AEC000080082F800E083EA0023705D82F804C085
:10AED00083EA00434FEA1E2050704FEA1E409070F4
:10AEE0004FEA1C2050714FEA1C4090714FEA1C60E1
:10AEF000D071080A5072080C090ED172190A4FEA73
:10AF00001E64137351731193190C1B0E907291737D
:10AF1000D470D3730EA8042100F04CFA0FA80421BA
:10AF200000F048FA10A8042100F044FA11A8042106
:10AF300000F040FA12A8042100F03CFA13A8042102
:10AF400000F038FA14A8042100F034FA15A80421FE
:10AF500000F030FA0DA8042100F02CFA002017B000
:10AF6000BDE8F08F6025030060310300602403001A
:10AF700060290300602D030055F8204C63404340D6
:10AF8000129355F81C0C89EA000080EA0A0013901D
:10AF900055F8184C4C40DDE9041684EA0804149472
:10AFA000714055F8146C5FFA83F971404FEA1068EC
:10AFB000394E57F8299056F8288081EA0B011591EF
:10AFC00089EA0808C1F3072955F8106C5EF8299042
:10AFD00088EA060888EA0908C4F307492E4E5CF897
:10AFE000299088EA0908CDF838805FFA80F94FEA9D
:10AFF000146857F8299056F8288055F80C6C89EA9F
:10B000000808C3F3072988EA06085EF82990224E4B
:10B0100088EA0908C1F307495FFA81FB5CF82990C7
:10B0200088EA0908CDF83C805FFA84F94FEA116894
:10B0300057F8299056F8288055F8086C164989EA7F
:10B040000808C0F3072988EA06085EF8299088EA0C
:10B050000908C3F30749C4F307245CF8299088EA78
:10B060000908CDF840804FEA136857F82B3051F8A3
:10B070002810594055F8043CC0F307404B405EF897
:10B0800024104B405CF820104B401193019B013B76
:10B090000193012436E600BF6031030010B40C4672
:10B0A000012C11461A4603D15DF8044BFFF708BC8A
:10B0B0005DF8044BFFF700BE2DE9F04FB2F5C07FFD
:10B0C000ADF53F7D06460F46154600F2AF804FF4C2
:10B0D000D072002156A805F02BFB10A8FFF70EFB3D
:10B0E0000DF5B8782B0A00248DF86A312A46202302
:10B0F000394640468DF86F318DF868418DF86941C9
:10B100008DF86B5105F0EBFA80236A4608F805309C
:10B110009146234602F8013B0133102BFAD18022DD
:10B12000494610A8FFF7F6FA044600285ED1193503
:10B130000746102200210DEB020005F0F9FAAA469D
:10B140000DF5AC7804AA08F1FF33934608F10F001F
:10B15000117813F8014F6140834202F8011BF7D1C7
:10B16000BAF1100F5B465A464FF0010110A894BF88
:10B17000AAEB0A0AAAF1100AFFF790FF08F11008DB
:10B18000044698BBBAF1000FDCD108ABD8191022E5
:10B19000594605F0A4FA9DF85B3110370133202F92
:10B1A0008DF85B31C5D1802208A910A8FFF7B2FA4B
:10B1B0000446D8B90CAB1A46012110A8FFF76EFF60
:10B1C000044698B910220CA9304605F088FA0CAB59
:10B1D0001A46012110A8FFF761FF06F11005044689
:10B1E00020B910220CA9284605F079FA10A8FFF71B
:10B1F0008AFA4FF4D07156A800F0DCF820210DEB4C
:10B20000010000F0D7F81021484600F0D3F81021D3
:10B210000DEB010000F0CEF81CB12021304600F00B
:10B22000C9F820460DF53F7DBDE8F08F6FF037047B
:10B23000F7E72DE9F04389B005460E4620220021AC
:10B24000684605F075FA002705F12009E8460DEB80
:10B25000070305F10F010A780132D2B2084601F85E
:10B2600001290AB9A842F6D12A4601214846FFF72A
:10B2700015FF0446D0B91037202FE7D1731E1F36B3
:10B2800098F8002013F8011F4A40B34208F8012B38
:10B29000F6D1802269464846FFF73CFA044628B9B1
:10B2A00010220DEB0201284605F019FA684620210C
:10B2B00000F080F8204609B0BDE8F0834FF4A0729A
:10B2C000002105F035BA10B5044648B12030FFF72B
:10B2D0001AFA20464FF4A071BDE8104000F06AB899
:10B2E00010BDF0B58369B3F5C07FE1B005460F46E8
:10B2F000144632D8C3F5C07393422ED34FF4C072B4
:10B300000021684605F014FAD5F83831AA69D5F855
:10B310003C016946984718BBAE693FB134B10DEBAB
:10B3200006002246394605F0DAF9264432466946D7
:10B330006846FFF7C1FE044638B969462846FFF75C
:10B3400078FF044608B901232B614FF4C0716846A9
:10B3500000F030F8204661B0F0BD6FF03704F9E737
:10B360006FF03304F6E7F0B587B004460F46164693
:10B370000021102202A81D4605F0DAF904F1200090
:10B380000190FFF7BBF9A3690198C4E94E760BB9A8
:10B390002023A3614FF6F073E361802202A9FFF737
:10B3A000B9F920B90C9A29462046FFF79AFF07B051
:10B3B000F0BD00000A4619B1024B00211B68184776
:10B3C000704700BF102C002028B139B10023C1E91B
:10B3D00000301846704748F21050704748F213503A
:10B3E0007047000070B505460C461E46FFF7ECFF9F
:10B3F00070B9AB796AB1B3420ED12979094B53F8D0
:10B40000213063B111462046984708B9064B2360A6
:10B4100070BD48F21050FBE748F21150F8E748F2CF
:10B420000350F5E7603503007052464DF0B530B17A
:10B430004079B3B1C9B18AB948F2135313E0184641
:10B44000F7E7441E00254E5D0F5D57551655013533
:10B45000013CA542F7D91B1A014402448342F0D2B1
:10B460000BB148F211531846F0BD48F21053FAE7F9
:10B47000054B1A78022A04D01878431E58425841C6
:10B4800070470120704700BF3C35002070B506466C
:10B490000D466A46194B9A4205D3FFF7E9FF78B982
:10B4A0004FF4054070BD164B16481749C01AC00826
:10B4B000000440F00100FEF7A7FF48F21950F1E741
:10B4C000124C236823B1124B1A68124B9A420FD0C8
:10B4D00086B97DB9104811492060FBF71BF8002898
:10B4E000E0D10B4B0B4A1A6023680D4A1A60D9E76A
:10B4F0000020D7E748F21750D4E700BF00E0002053
:10B50000FC080300340903006C3503008C3600206E
:10B51000843600206572E54B4035002088360020D7
:10B520006169614D094B0A4A196891420AD1094A79
:10B530001068094A0168914204D1002202601A6031
:10B54000FBF704B848F20250704700BF8436002071
:10B550006572E54B8C3600206169614D76DF70477E
:10B5600078DF70477ADF70477CDF70478FDF704786
:10B570007047FAF7F3BF00000A8840F677239A4233
:10B5800010B50C460BD1094B09484A88C01AC008AF
:10B5900000048B88074940F00300FEF742FF214674
:10B5A0000548BDE8104004F0CBBB00BFFC08030019
:10B5B0003409030085350300403B00202DE9F041AC
:10B5C0000378044653BB40680221FEF7A3FA08B192
:10B5D000FAF7C4FFFEF76AFB0720FDF733FB104EB6
:10B5E000104FDFF84480002563685A5B3378B2F56A
:10B5F000805F28BF0022FA54591C0233DBB2C9B263
:10B60000120A102B7A54337005D13946404604F0A3
:10B6100063FB002333700235042DE5D1BDE8F081D2
:10B620009036002091360020403B0020FAF796BF6C
:10B6300008B580B10B4B0C480C49C01AC008000477
:10B6400040F00300FEF7E0FE03F088FA40B1BDE8E9
:10B650000840FAF783BF0321054801F01EF9F5E71A
:10B6600008BD00BFFC08030034090300B435030023
:10B67000B83600200388212B13B504465AD005D8CC
:10B68000102B0CD0112B39D002B010BD3B2B01D0A8
:10B69000562BF9D1A0881321FFF760FF27E02C4B30
:10B6A0002C482D49C01AC008000440F00300FEF7E2
:10B6B000ABFE2A4BA1882A48198002F07FFD08B111
:10B6C000FAF74CFF4FF0A0430322C3F81C2740F2C7
:10B6D0000332C3F81C270720FDF7BCFA214B224890
:10B6E00000221A60214BA4211A70FBF732F80028BF
:10B6F000CAD002B0BDE81040FAF730BF144B15486D
:10B700001B49227AC01AC008000440F00300FEF76B
:10B710007FFE124B14484FF6FF721A80FBF731F888
:10B720000720FDF78FFA134B187802B0BDE81040E0
:10B73000FFF77EBF002380888DF8043001A98DF8C3
:10B740000530FFF713FF00289ED0FAF707FF9BE7AD
:10B75000FC08030034090300C1350300222C00203B
:10B76000903B0020A8360020203B0020B43600206B
:10B77000CC350300A136002058B103280DD107486D
:10B78000074B0849C01AC008000440F00300FEF748
:10B790003BBE054B1878FFF74BBF704734090300D9
:10B7A000FC080300E5350300A136002030B5384C15
:10B7B000224689B052F8040B019051686068127AF1
:10B7C00002AB03C31A70334A137802258DF8045074
:10B7D000072B20D8DFE803F00A04081B1D1F2123D4
:10B7E00001238DF80A3001E08DF80A502A4DD4F873
:10B7F0000D00696805AB03C3297A19705378072BCC
:10B8000040D8DFE803F0110E393B3D3F41430323AD
:10B81000E7E70423E5E70523E3E70623E1E707235A
:10B82000DFE701238DF8163002A90020FEF718F992
:10B8300008B1FAF793FE05A90120FEF711F908B146
:10B84000FAF78CFE154901A8FEF7C2F808B1FAF71D
:10B8500085FE13480221FEF75DF908B1FAF77EFE76
:10B8600010480221FEF756F908B1FAF777FE0E4BA1
:10B87000D3F8043309B030BD0223D3E70323D1E763
:10B880000423CFE70523CDE70623CBE70723C9E74A
:10B8900013360300A03B002020360300BDB5020094
:10B8A000003B0020043B002000700040204921485C
:10B8B0000A68006870B5204C236801320133824267
:10B8C0000A6023600AD300230B60FFF76FFFFEF7C7
:10B8D00073F908B3BDE87040FAF740BE174E3578EB
:10B8E0006DB1174A1268934216D30720FDF7A2F9EB
:10B8F000144A002301212360117033700CE0114EB3
:10B900003278012A09D1104A1268934204D30720E1
:10B91000FDF798F92560357070BD0C4A12689342A6
:10B92000FAD30720FDF786F925600123E5E700BF7C
:10B930009C3B0020A43B0020A8360020142C0020B3
:10B94000A4360020B4360020B0360020AC360020EB
:10B9500000B54FF48041B3B00020FEF7BBFB08B147
:10B96000FAF7FCFDFEF7E8FA4FF080430122C3F836
:10B970007825864A00231360854A1370854A0A2376
:10B980001360854A1360854B14221A60844B0F2282
:10B990001A60844B02221A705A70FAF79DFE08B1A1
:10B9A000FAF7DCFD804A81480121FAF7C7FE08B1A9
:10B9B000FAF7D4FDFCF796FC08B1FAF7CFFD04F0D6
:10B9C0005BFB08B1FAF7CAFD002307A90120079322
:10B9D00004F024FC08B1FAF7C1FD07A804F0F0FC5C
:10B9E00008B1FAF7BBFD112371488DF8083004F057
:10B9F000F4FE6F4982B202A8FFF7B6FD08B1FAF76C
:10BA0000ADFD40F24130FFF7ABFD08B1FAF7A6FDFE
:10BA10000822002107A804F08BFE4FF4B463ADF8B0
:10BA20001C304FF4DC63ADF81E300023ADF820303D
:10BA300007A84FF41673ADF82230FFF793FD08B155
:10BA4000FAF78CFD5B495C4802F000FA08B1FAF79E
:10BA500085FDFDF783F820B9FDF742F808B1FAF744
:10BA60007DFD01238DF81C3007A9002307208DF8E8
:10BA70001D308DF81E30FDF77BF808B1FAF76EFD2A
:10BA8000AC22002107A804F053FE02238DF81C30DD
:10BA900040F20163ADF81E300323ADF82C30474B64
:10BAA0000C9301238DF898304FF4FA7241F27073C1
:10BAB000CDE929234248434B309307A900F06EFE9D
:10BAC00008B1FAF74BFD3E48012100F064FE3E4B01
:10BAD0003E48019301A902F05FFB08B1FAF73EFD71
